{
  "contractName": "Wallet",
  "abi": [
    {
      "anonymous": false,
      "inputs": [
        {
          "indexed": true,
          "internalType": "address",
          "name": "previousOwner",
          "type": "address"
        },
        {
          "indexed": true,
          "internalType": "address",
          "name": "newOwner",
          "type": "address"
        }
      ],
      "name": "OwnershipTransferred",
      "type": "event"
    },
    {
      "inputs": [
        {
          "internalType": "address",
          "name": "",
          "type": "address"
        },
        {
          "internalType": "bytes32",
          "name": "",
          "type": "bytes32"
        }
      ],
      "name": "balances",
      "outputs": [
        {
          "internalType": "uint256",
          "name": "",
          "type": "uint256"
        }
      ],
      "stateMutability": "view",
      "type": "function",
      "constant": true
    },
    {
      "inputs": [],
      "name": "owner",
      "outputs": [
        {
          "internalType": "address",
          "name": "",
          "type": "address"
        }
      ],
      "stateMutability": "view",
      "type": "function",
      "constant": true
    },
    {
      "inputs": [],
      "name": "renounceOwnership",
      "outputs": [],
      "stateMutability": "nonpayable",
      "type": "function"
    },
    {
      "inputs": [
        {
          "internalType": "uint256",
          "name": "",
          "type": "uint256"
        }
      ],
      "name": "tokenList",
      "outputs": [
        {
          "internalType": "bytes32",
          "name": "",
          "type": "bytes32"
        }
      ],
      "stateMutability": "view",
      "type": "function",
      "constant": true
    },
    {
      "inputs": [
        {
          "internalType": "bytes32",
          "name": "",
          "type": "bytes32"
        }
      ],
      "name": "tokenMapping",
      "outputs": [
        {
          "internalType": "bytes32",
          "name": "ticker",
          "type": "bytes32"
        },
        {
          "internalType": "address",
          "name": "tokenAddress",
          "type": "address"
        }
      ],
      "stateMutability": "view",
      "type": "function",
      "constant": true
    },
    {
      "inputs": [
        {
          "internalType": "address",
          "name": "newOwner",
          "type": "address"
        }
      ],
      "name": "transferOwnership",
      "outputs": [],
      "stateMutability": "nonpayable",
      "type": "function"
    },
    {
      "inputs": [
        {
          "internalType": "bytes32",
          "name": "ticker",
          "type": "bytes32"
        },
        {
          "internalType": "address",
          "name": "tokenAddress",
          "type": "address"
        }
      ],
      "name": "addToken",
      "outputs": [],
      "stateMutability": "nonpayable",
      "type": "function"
    },
    {
      "inputs": [
        {
          "internalType": "uint256",
          "name": "amount",
          "type": "uint256"
        },
        {
          "internalType": "bytes32",
          "name": "ticker",
          "type": "bytes32"
        }
      ],
      "name": "deposit",
      "outputs": [],
      "stateMutability": "nonpayable",
      "type": "function"
    },
    {
      "inputs": [
        {
          "internalType": "uint256",
          "name": "amount",
          "type": "uint256"
        },
        {
          "internalType": "bytes32",
          "name": "ticker",
          "type": "bytes32"
        }
      ],
      "name": "withdraw",
      "outputs": [],
      "stateMutability": "nonpayable",
      "type": "function"
    }
  ],
  "bytecode": "0x608060405234801561001057600080fd5b5060006100216100c460201b60201c565b9050806000806101000a81548173ffffffffffffffffffffffffffffffffffffffff021916908373ffffffffffffffffffffffffffffffffffffffff1602179055508073ffffffffffffffffffffffffffffffffffffffff16600073ffffffffffffffffffffffffffffffffffffffff167f8be0079c531659141344cd1fd0a4f28419497f9722a3daafe3b4186f6b6457e060405160405180910390a3506100cc565b600033905090565b6111b3806100db6000396000f3fe608060405234801561001057600080fd5b50600436106100935760003560e01c80639776aacf116100665780639776aacf146101215780639ead72221461013d578063a8d2021a1461016d578063c9630cb014610189578063f2fde38b146101a557610093565b80631f14df6914610098578063667cb4ba146100c8578063715018a6146100f95780638da5cb5b14610103575b600080fd5b6100b260048036038101906100ad9190610c29565b6101c1565b6040516100bf9190610fea565b60405180910390f35b6100e260048036038101906100dd9190610c8e565b6101e6565b6040516100f0929190610f41565b60405180910390f35b61010161022a565b005b61010b610364565b6040516101189190610eab565b60405180910390f35b61013b60048036038101906101369190610cb7565b61038d565b005b61015760048036038101906101529190610cf3565b6104c8565b6040516101649190610f26565b60405180910390f35b61018760048036038101906101829190610d1c565b6104ec565b005b6101a3600480360381019061019e9190610d1c565b6107a6565b005b6101bf60048036038101906101ba9190610c00565b6109cf565b005b6003602052816000526040600020602052806000526040600020600091509150505481565b60016020528060005260406000206000915090508060000154908060010160009054906101000a900473ffffffffffffffffffffffffffffffffffffffff16905082565b610232610b78565b73ffffffffffffffffffffffffffffffffffffffff16610250610364565b73ffffffffffffffffffffffffffffffffffffffff16146102a6576040517f08c379a000000000000000000000000000000000000000000000000000000000815260040161029d90610faa565b60405180910390fd5b600073ffffffffffffffffffffffffffffffffffffffff1660008054906101000a900473ffffffffffffffffffffffffffffffffffffffff1673ffffffffffffffffffffffffffffffffffffffff167f8be0079c531659141344cd1fd0a4f28419497f9722a3daafe3b4186f6b6457e060405160405180910390a360008060006101000a81548173ffffffffffffffffffffffffffffffffffffffff021916908373ffffffffffffffffffffffffffffffffffffffff160217905550565b60008060009054906101000a900473ffffffffffffffffffffffffffffffffffffffff16905090565b610395610b78565b73ffffffffffffffffffffffffffffffffffffffff166103b3610364565b73ffffffffffffffffffffffffffffffffffffffff1614610409576040517f08c379a000000000000000000000000000000000000000000000000000000000815260040161040090610faa565b60405180910390fd5b60405180604001604052808381526020018273ffffffffffffffffffffffffffffffffffffffff16815250600160008481526020019081526020016000206000820151816000015560208201518160010160006101000a81548173ffffffffffffffffffffffffffffffffffffffff021916908373ffffffffffffffffffffffffffffffffffffffff16021790555090505060028290806001815401808255809150506001900390600052602060002001600090919091909150555050565b600281815481106104d857600080fd5b906000526020600020016000915090505481565b80600073ffffffffffffffffffffffffffffffffffffffff166001600083815260200190815260200160002060010160009054906101000a900473ffffffffffffffffffffffffffffffffffffffff1673ffffffffffffffffffffffffffffffffffffffff161415610593576040517f08c379a000000000000000000000000000000000000000000000000000000000815260040161058a90610f8a565b60405180910390fd5b82600360003373ffffffffffffffffffffffffffffffffffffffff1673ffffffffffffffffffffffffffffffffffffffff1681526020019081526020016000206000848152602001908152602001600020541015610626576040517f08c379a000000000000000000000000000000000000000000000000000000000815260040161061d90610fca565b60405180910390fd5b61068983600360003373ffffffffffffffffffffffffffffffffffffffff1673ffffffffffffffffffffffffffffffffffffffff168152602001908152602001600020600085815260200190815260200160002054610b8090919063ffffffff16565b600360003373ffffffffffffffffffffffffffffffffffffffff1673ffffffffffffffffffffffffffffffffffffffff1681526020019081526020016000206000848152602001908152602001600020819055506001600083815260200190815260200160002060010160009054906101000a900473ffffffffffffffffffffffffffffffffffffffff1673ffffffffffffffffffffffffffffffffffffffff1663a9059cbb33856040518363ffffffff1660e01b815260040161074e929190610efd565b602060405180830381600087803b15801561076857600080fd5b505af115801561077c573d6000803e3d6000fd5b505050506040513d601f19601f820116820180604052508101906107a09190610c65565b50505050565b80600073ffffffffffffffffffffffffffffffffffffffff166001600083815260200190815260200160002060010160009054906101000a900473ffffffffffffffffffffffffffffffffffffffff1673ffffffffffffffffffffffffffffffffffffffff16141561084d576040517f08c379a000000000000000000000000000000000000000000000000000000000815260040161084490610f8a565b60405180910390fd5b6001600083815260200190815260200160002060010160009054906101000a900473ffffffffffffffffffffffffffffffffffffffff1673ffffffffffffffffffffffffffffffffffffffff166323b872dd3330866040518463ffffffff1660e01b81526004016108c093929190610ec6565b602060405180830381600087803b1580156108da57600080fd5b505af11580156108ee573d6000803e3d6000fd5b505050506040513d601f19601f820116820180604052508101906109129190610c65565b5061097683600360003373ffffffffffffffffffffffffffffffffffffffff1673ffffffffffffffffffffffffffffffffffffffff168152602001908152602001600020600085815260200190815260200160002054610b9690919063ffffffff16565b600360003373ffffffffffffffffffffffffffffffffffffffff1673ffffffffffffffffffffffffffffffffffffffff168152602001908152602001600020600084815260200190815260200160002081905550505050565b6109d7610b78565b73ffffffffffffffffffffffffffffffffffffffff166109f5610364565b73ffffffffffffffffffffffffffffffffffffffff1614610a4b576040517f08c379a0000000000000000000000000000000000000000000000000000000008152600401610a4290610faa565b60405180910390fd5b600073ffffffffffffffffffffffffffffffffffffffff168173ffffffffffffffffffffffffffffffffffffffff161415610abb576040517f08c379a0000000000000000000000000000000000000000000000000000000008152600401610ab290610f6a565b60405180910390fd5b8073ffffffffffffffffffffffffffffffffffffffff1660008054906101000a900473ffffffffffffffffffffffffffffffffffffffff1673ffffffffffffffffffffffffffffffffffffffff167f8be0079c531659141344cd1fd0a4f28419497f9722a3daafe3b4186f6b6457e060405160405180910390a3806000806101000a81548173ffffffffffffffffffffffffffffffffffffffff021916908373ffffffffffffffffffffffffffffffffffffffff16021790555050565b600033905090565b60008183610b8e919061106c565b905092915050565b60008183610ba49190611016565b905092915050565b600081359050610bbb81611121565b92915050565b600081519050610bd081611138565b92915050565b600081359050610be58161114f565b92915050565b600081359050610bfa81611166565b92915050565b600060208284031215610c1257600080fd5b6000610c2084828501610bac565b91505092915050565b60008060408385031215610c3c57600080fd5b6000610c4a85828601610bac565b9250506020610c5b85828601610bd6565b9150509250929050565b600060208284031215610c7757600080fd5b6000610c8584828501610bc1565b91505092915050565b600060208284031215610ca057600080fd5b6000610cae84828501610bd6565b91505092915050565b60008060408385031215610cca57600080fd5b6000610cd885828601610bd6565b9250506020610ce985828601610bac565b9150509250929050565b600060208284031215610d0557600080fd5b6000610d1384828501610beb565b91505092915050565b60008060408385031215610d2f57600080fd5b6000610d3d85828601610beb565b9250506020610d4e85828601610bd6565b9150509250929050565b610d61816110a0565b82525050565b610d70816110be565b82525050565b6000610d83602683611005565b91507f4f776e61626c653a206e6577206f776e657220697320746865207a65726f206160008301527f64647265737300000000000000000000000000000000000000000000000000006020830152604082019050919050565b6000610de9601483611005565b91507f546f6b656e20646f6573206e6f742065786973740000000000000000000000006000830152602082019050919050565b6000610e29602083611005565b91507f4f776e61626c653a2063616c6c6572206973206e6f7420746865206f776e65726000830152602082019050919050565b6000610e69601683611005565b91507f42616c616e6365206e6f742073756666696369656e74000000000000000000006000830152602082019050919050565b610ea5816110e8565b82525050565b6000602082019050610ec06000830184610d58565b92915050565b6000606082019050610edb6000830186610d58565b610ee86020830185610d58565b610ef56040830184610e9c565b949350505050565b6000604082019050610f126000830185610d58565b610f1f6020830184610e9c565b9392505050565b6000602082019050610f3b6000830184610d67565b92915050565b6000604082019050610f566000830185610d67565b610f636020830184610d58565b9392505050565b60006020820190508181036000830152610f8381610d76565b9050919050565b60006020820190508181036000830152610fa381610ddc565b9050919050565b60006020820190508181036000830152610fc381610e1c565b9050919050565b60006020820190508181036000830152610fe381610e5c565b9050919050565b6000602082019050610fff6000830184610e9c565b92915050565b600082825260208201905092915050565b6000611021826110e8565b915061102c836110e8565b9250827fffffffffffffffffffffffffffffffffffffffffffffffffffffffffffffffff03821115611061576110606110f2565b5b828201905092915050565b6000611077826110e8565b9150611082836110e8565b925082821015611095576110946110f2565b5b828203905092915050565b60006110ab826110c8565b9050919050565b60008115159050919050565b6000819050919050565b600073ffffffffffffffffffffffffffffffffffffffff82169050919050565b6000819050919050565b7f4e487b7100000000000000000000000000000000000000000000000000000000600052601160045260246000fd5b61112a816110a0565b811461113557600080fd5b50565b611141816110b2565b811461114c57600080fd5b50565b611158816110be565b811461116357600080fd5b50565b61116f816110e8565b811461117a57600080fd5b5056fea264697066735822122044006f9254f99e7e6690bdcd807f005d826529397725ef0083714bc5f567be1364736f6c63430008000033",
  "immutableReferences": {},
  "source": "pragma solidity >= 0.6.0 <= 0.8.0;\n\nimport \"../node_modules/@openzeppelin/contracts/token/ERC20/IERC20.sol\";\nimport \"../node_modules/@openzeppelin/contracts/utils/math/SafeMath.sol\";\nimport \"../node_modules/@openzeppelin/contracts/access/Ownable.sol\";\n\ncontract Wallet is Ownable{\n    using SafeMath for uint256;\n\n    struct Token{\n        bytes32 ticker;\n        address tokenAddress;\n    }\n    mapping(bytes32 => Token) public tokenMapping;\n    bytes32[] public tokenList;\n\n    //balance of ETH and other tokens\n    mapping(address => mapping(bytes32 => uint256)) public balances;\n\n    modifier tokenExist(bytes32 ticker){\n        require(tokenMapping[ticker].tokenAddress!=address(0), \"Token does not exist\") ;\n        _;\n    }\n\n    function addToken(bytes32 ticker, address tokenAddress) onlyOwner external {\n        tokenMapping[ticker] = Token(ticker,tokenAddress);\n        tokenList.push(ticker);\n    }\n//IERC20\n    function deposit(uint amount, bytes32 ticker) tokenExist(ticker) external{\n        //require(tokenMapping[ticker].tokenAddress != address(0));\n        IERC20(tokenMapping[ticker].tokenAddress).transferFrom(msg.sender, address(this), amount);\n        balances[msg.sender][ticker] = balances[msg.sender][ticker].add(amount);\n    }\n    function withdraw(uint amount, bytes32 ticker) tokenExist(ticker) external{\n        //require(tokenMapping[ticker].tokenAddress!=address(0));\n        require(balances[msg.sender][ticker] >=amount,\"Balance not sufficient\");\n        \n        balances[msg.sender][ticker]=balances[msg.sender][ticker].sub(amount);\n        IERC20(tokenMapping[ticker].tokenAddress).transfer(msg.sender, amount);\n    }\n}",
  "sourcePath": "/Users/shawnwollenberg/Developer/Ethereum/IvanCourse/eth201/dex/contracts/wallet.sol",
  "compiler": {
    "name": "solc",
    "version": "0.8.0+commit.c7dfd78e.Emscripten.clang"
  },
  "schemaVersion": "3.3.4",
  "updatedAt": "2021-04-10T18:25:51.542Z",
  "networkType": "ethereum",
  "devdoc": {
    "kind": "dev",
    "methods": {
      "owner()": {
        "details": "Returns the address of the current owner."
      },
      "renounceOwnership()": {
        "details": "Leaves the contract without owner. It will not be possible to call `onlyOwner` functions anymore. Can only be called by the current owner. NOTE: Renouncing ownership will leave the contract without an owner, thereby removing any functionality that is only available to the owner."
      },
      "transferOwnership(address)": {
        "details": "Transfers ownership of the contract to a new account (`newOwner`). Can only be called by the current owner."
      }
    },
    "version": 1
  },
  "userdoc": {
    "kind": "user",
    "methods": {},
    "version": 1
  }
}